:1000000009C021C020C02DC11EC01DC01CC01BC006
:100010001AC019C011241FBECFE9CDBF10E0A0E661
:10002000B0E0EAEFF3E002C005900D92A436B1070C
:10003000D9F710E0A4E6B0E001C01D92AA37B107DD
:10004000E1F7B3D1D8C1DCCFFF920F931F9300E645
:1000500010E0080F111DF801F0808F2D61E07FD1B5
:10006000F8011281812F61E07AD186E990E030D1E8
:100070008F2D60E074D1812F60E071D11F910F91BD
:10008000FF9008951F93182F83E0612F68D184E0BB
:10009000612F65D181E0612F62D180E0612F5FD156
:1000A0001F910895FF920F931F938B01FC01E05A5B
:1000B000FF4FF0808F2D61E052D1C80109D18F2D03
:1000C00060E04DD184E690E003D11F910F91FF9045
:1000D00008951F93CF93DF93109271008091700069
:1000E0008C3070F5E3D06054724A8F4F9F4F60930D
:1000F0007200709373008093740090937500209148
:100100007000E22FF0E0EC59FF4F637060832F5FC7
:100110002093700084EF91E0DBD0C0E0D0E009C014
:10012000FE01EC59FF4F808190E064EF71E0BADF8F
:1001300021968091700090E0C817D9078CF311C008
:1001400010E081E09FDF86E990E0C2D080E09ADF96
:10015000812F817079DF1F5F123199F7E0E0F0E0C5
:100160000995DF91CF911F9108951F93CF93DF934E
:100170009DD0209172003091730040917400509195
:100180007500261737074807590738F488EE93E0BB
:100190009FD0E0E0F0E0099546C081E0B3D0823323
:1001A00091051CF4C0E0D0E012C0863991051CF422
:1001B000C1E0D0E00CC021E08C3292071CF4C2E018
:1001C000D0E005C08855924074F5C3E0D0E0CE0180
:1001D00060E971E067DF20917100E22FF0E0EC59F7
:1001E000FF4F808190E0C817D90751F4922F9F5F8D
:1001F00090937100809170009817A9F46ADF13C082
:1002000010E0812F81703EDFCE016CE271E04ADFA9
:100210001F5F1830B1F710927200109273001092A5
:10022000740010927500DF91CF911F9108951F9374
:1002300083E061E078D084E061E075D081E061E046
:1002400072D080E061E06FD014E0812F8170FCDE1D
:1002500081E058D01F5F885E9340BCF73ADF1F9162
:1002600008951F920F920FB60F9211248F939F93B0
:10027000AF93BF938091760090917700A091780022
:10028000B09179000196A11DB11D809376009093E5
:100290007700A0937800B0937900BF91AF919F91C0
:1002A0008F910F900FBE0F901F901895F89460914A
:1002B0007600709177008091780090917900789421
:1002C00025E230E040E050E074D0CA01B901089561
:1002D00020E639E004C0F9013197F1F70197009762
:1002E000D1F7089583B7816083BF8FB583608FBDD9
:1002F00089B7826089BF12BE789417B886B18768C3
:1003000086B9089597B183709074892B87B9369A0E
:100310003699FECF24B145B1942F80E030E0282BF0
:10032000392BC9010895382F8630C0F4662361F453
:1003300027B381E090E002C0880F991F3A95E2F759
:100340008095822387BB089527B381E090E002C0A7
:10035000880F991F3A95E2F7282B27BB0895382F6D
:10036000863010F5823040F4882319F48FB58F77EA
:1003700002C08FB58F7D8FBD662361F428B381E005
:1003800090E002C0880F991F3A95E2F7809582238A
:1003900088BB089528B381E090E002C0880F991FC0
:1003A0003A95E2F7282B28BB08959CDF40DFDDDE7D
:1003B000FECFA1E21A2EAA1BBB1BFD010DC0AA1F76
:1003C000BB1FEE1FFF1FA217B307E407F50720F0BE
:1003D000A21BB30BE40BF50B661F771F881F991F39
:1003E0001A9469F760957095809590959B01AC0182
:0A03F000BD01CF010895F894FFCF7E
:0403FA0003040100F7
:00000001FF
