:1000000009C021C020C01FC01EC01DC01CC01BC015
:10001000F6C019C011241FBECFE9CDBF10E0A0E685
:10002000B0E0ECEBF3E002C005900D92A436B1070E
:10003000D9F720E0A4E6B0E001C01D92AA37B207CC
:10004000E1F702D1B9C1DCCF87B18074816087B993
:10005000369A3699FECF84B125B190E0922B08955F
:10006000863008F5823038F49FB5811102C09F7741
:1000700001C09F7D9FBD48B321E030E0662349F079
:10008000B90102C0660F771F8A95E2F7CB01842B76
:1000900009C0B90102C0660F771F8A95E2F7CB014C
:1000A0008095842388BB0895CF93C82F682F83E061
:1000B000D7DF6C2F84E0D4DF6C2F81E0D1DF6C2F91
:1000C00080E0CF91CDCFEFE5F9E03197F1F700C0B7
:1000D00000000197C1F708951F93CF93DF93C82FB6
:1000E000D0E0C05ADF4F188161E0812FB9DFCA81AB
:1000F00061E08C2FB5DF86E990E0E5DF60E0812FDD
:10010000AFDF60E08C2FDF91CF911F91A9CF0F93CC
:100110001F93CF938B01E82FF0E0E05AFF4FC0818F
:1001200061E08C2F9DDFC801CEDF60E08C2F98DF6F
:1001300084E690E0CF911F910F91C5CF0F931F934D
:10014000CF9310927500C0916800CC3008F03FC08A
:100150008091640090916500A0916600B091670065
:1001600024E0880F991FAA1FBB1F2A95D1F7BC0155
:10017000CD016054724A8F4F9F4F60937600709309
:10018000770080937800909379000C2F10E0075946
:100190001F4F2DE030E040E050E0ECD02C0F2370FA
:1001A000F8012083CF5FC093680084EF91E08BDF7C
:1001B000C0E080916800C817F0F4EC2FF0E0E75938
:1001C000FF4F64EF71E08081A2DFCF5FF2CFC0E02C
:1001D00081E06ADF86E990E076DF80E065DF8C2FE2
:1001E00081707ADFCF5FC23199F7E0E0F0E0CF9124
:1001F0001F910F910994CF911F910F9108951F9214
:100200000F920FB60F9211248F939F93AF93BF93CA
:100210008091640090916500A0916600B0916700A4
:100220000196A11DB11D8093640090936500A09379
:100230006600B0936700BF91AF919F918F910F902F
:100240000FBE0F901F90189583B7836083BF8FB543
:1002500083608FBDF894A89580E481BD789417B829
:1002600086B1876886B9E0E6F0E041E050E024E03E
:100270002E0F9191963050F437B3BA0102C0660F39
:10028000771F9A95E2F7CB01832B87BB2E13F1CF13
:1002900024E0C1E0C20F822F81701EDFD5DE2C2F3B
:1002A000883E9340B4F74ADFFF24F39400E010E067
:1002B0008091640090916500A0916600B091670004
:1002C00024E0880F991FAA1FBB1F2A95D1F74091E0
:1002D000760050917700609178007091790048170E
:1002E00059076A077B0730F488EE93E0ECDEF801EB
:1002F0000995DECFA9DE8233910564F08639910538
:100300005CF08C32F1E09F074CF08835924084F627
:10031000C3E005C0C0E003C0C1E001C0C2E060E9C5
:1003200071E08C2FF4DE80917500A82FB0E0A75902
:10033000BF4F9C91C91309C08F5F80937500909146
:1003400068008913B5CFFADEB3CFD1E08D2F81706D
:100350008F25AADE6CE271E08C2FD9DEDF5FD93009
:10036000A9F7109276001092770010927800109200
:1003700079009ECFA1E21A2EAA1BBB1BFD010DC066
:10038000AA1FBB1FEE1FFF1FA217B307E407F50745
:1003900020F0A21BB30BE40BF50B661F771F881F21
:1003A000991F1A9469F760957095809590959B01B7
:0C03B000AC01BD01CF010895F894FFCF0F
:0403BC000304010035
:00000001FF
